:03000000020003F8
:0C000300787FE4F6D8FD75811702004AF2
:1000FB000116010B0BC0F9A4B0999282F880900104
:03010B00010AC026
:1000E500EF1FAA0670011E4A600BE4FDEDC394786C
:0500F50050EE0D80F744
:0100FA0022E3
:1000B20075A0FF20A40A7F327E001200E5750801B8
:0C00C20020A408850A8075A0F780F522B4
:1000CE0075A0F7AF160516740B2FF8E6F50AE516B0
:0700DE00B40A03E4F5162249
:10008F00E4F508850B801200B2E508B401061200F2
:10009F00CEE4F508850A8075A0F77F027E00120076
:0300AF00E580E306
:10000F0002008FE493A3F8E493A34003F68001F278
:10001F0008DFF48029E493A3F85407240CC8C333F2
:10002F00C4540F4420C8834004F456800146F6DFC1
:10003F00E4800B01020408102040809000FBE47E56
:10004F00019360BCA3FF543F30E509541FFEE493B6
:10005F00A360010ECF54C025E060A840B8E493A37D
:10006F00FAE493A3F8E493A3C8C582C8CAC583CAA8
:10007F00F0A3C8C582C8CAC583CADFE9DEE780BE60
:01010E0000F0
:00000001FF
