:0300000002006F8C
:0C006F00787FE4F6D8FD75810A020003DA
:05007B007EBDDBE70083
:10005900EF1FAA0670011E4A600BE4FDEDC39478F8
:0500690050EE0D80F7D0
:01006E00226F
:1000030075A0FFE4F508F5097590FEE5A020E0066C
:10001300750800750901E50870F1E509602214709F
:10002300EAE5A030E0DAE50A90007B93600DF590F5
:10003300050A7FF47E0112005980E6E4F50A80E1A7
:100043007FF47E01120059AF907801EF08800123FD
:06005300D8FDF59080B518
:00000001FF
