:03000000020006F5
:0C000600787FE4F6D8FD75812002010C23
:09019C00FFFEFDFBF7EFDFBF7F62
:040181007FF47E0188
:10018500D3EF9400EE9400400DE4FD0DBD7DFCEF32
:060195001F70ED1E80EA60
:01019B002241
:10010C0078187C007D007BFF7A01799C7E007F094A
:10011C001200E6D2AFD2A8D2AAD288D28AE4F5B81D
:10012C00FBFA12018174182BF8E6F5900BBB000159
:09013C000AEB64094A70EB80DA59
:03000300020145B2
:07014500C0E0C0D075D00836
:10014C00E4FC75900F1201817590F01201810CBCCA
:02015C000AF0A7
:05015E00D0D0D0E0321A
:0300130002016384
:07016300C0E0C0D075D01010
:10016A00E4FC7590FF1201817590001201810CBCAC
:02017A000AF089
:05017C00D0D0D0E032FC
:10001600E709F608DFFA8046E709F208DFFA803ECC
:1000260088828C83E709F0A3DFFA8032E309F608B9
:10003600DFFA8078E309F208DFFA807088828C8321
:10004600E309F0A3DFFA806489828A83E0A3F608D5
:10005600DFFA805889828A83E0A3F208DFFA804CAF
:1000660080D280FA80C680D4806980F28033801086
:1000760080A680EA809A80A880DA80E280CA8033EF
:1000860089828A83ECFAE493A3C8C582C8CCC58367
:10009600CCF0A3C8C582C8CCC583CCDFE9DEE78037
:1000A6000D89828A83E493A3F608DFF9ECFAA9F0B6
:1000B600EDFB2289828A83ECFAE0A3C8C582C8CC0C
:1000C600C583CCF0A3C8C582C8CCC583CCDFEADE25
:1000D600E880DB89828A83E493A3F208DFF980CC87
:1000E60088F0EF60010E4E60C388F0ED2402B40480
:1000F6000050B9F582EB2402B4040050AF23234527
:06010600822390006673E5
:00000001FF
