:030000000202E316
:0C02E300787FE4F6D8FD75810F02018ED3
:10000E0000000000000000000000000000000000E2
:10001E0000000000000000000000000000000000D2
:10002E0000000000000000000000000010000800AA
:10003E00FF3F000000000000000000000000000074
:10004E000000000000000000000FC010A020902053
:10005E00882084200011000E000000000000000027
:10006E0040804240CC3F00400080E2FF22892A8936
:10007E002A89F2BF2A8926A922C9E0BF0080000082
:10008E00000180006000F8FF07000000040024F962
:10009E002449254926492449244924F9040000000D
:1000AE008000800080008000800080008000800042
:1000BE0080008000800080008000800080000000B2
:1000CE0084108430FC1F840884880042F8210018B4
:1000DE00FF07000084208420FC3F84208420000041
:1000EE000000000000000000000000000000000002
:1000FE0000000000000000000000000000000000F2
:10010E000009100990089208520932491289FE79A5
:10011E00120D310B510991089008100900090000C9
:10012E0040804080424042204210420C4203FE007A
:10013E004203420C42104220424040804080000068
:10014E0010020C0224022402240224422582E67F9D
:10015E002402240224022402240214020C020000AF
:10016E000000000000000000000000000000000081
:10017E000000000000000000000000000000000071
:10018E00750A10E4F50B758901758CB1758AE0D28C
:10019E00A9D2AFD28C750DFF750E00750F0EE4F55A
:1001AE000CAB0DAA0EA90F85098285088375F00286
:1001BE00E50C1202C812029BF580E50C4408F5A06E
:1001CE001202D4AB0DE50F2509F9E50E3508FAE557
:1001DE000C75F002A429F9EA35F0FA90000112022A
:1001EE009BF580E50C4410F5A01202D4050CE50C2D
:1001FE00C3940840AC750C08E50CC39410509FAB2B
:10020E000DAA0EA90F85098285088375F002E50CEB
:10021E001202C812029BF580E50C24F84420F5A0CA
:10022E001202D4AB0DE50F2509F9E50E3508FAE5F6
:10023E000C75F002A429F9EA35F0FA9000011202C9
:10024E009BF580E50C24F84440F5A01202D4050C71
:02025E0080A678
:0E02D400E4FFFE0FBF00010EEF640A4E70F54E
:0102E20022F9
:03000B000202608E
:10026000C0E0C0D0C28D758CB1758AE0E50BC39437
:100270000A5004050B801F74042509F509E43508AC
:10028000F508D3E509945EE5089401400675080079
:0B029000750900750B00D0D0D0E032E3
:10029B00BB010CE58229F582E5833AF583E0225018
:1002AB0006E92582F8E622BBFE06E92582F8E22262
:0D02BB00E58229F582E5833AF583E493227C
:0C02C800A42582F582E5F03583F5832241
:00000001FF
