:03000000020800F3
:0C080000787FE4F6D8FD758111020847EE
:0B095500C0F9A4B0999282F88090FFD6
:0909600007080A0A0A0102030457
:10093F00EF1FAA0670011E4A600BE4FDEDC3947809
:05094F0050EE0D80F7E1
:010954002280
:10088C00E4F5107511FEE4F50FE4FB7580FFEB2524
:10089C0010FFE433FE7C007D071208EA74082DF883
:1008AC00E690095593F5808511A07F057E0012090D
:1008BC003FAF117801EF08800123D8FDF5110BBB78
:1008CC0004C9050FE50FC3941440BEE5102401FFC5
:0E08DC00E433FE7C007D071208EA8D1080A830
:10080C0002088CE493A3F8E493A34003F68001F26E
:10081C0008DFF48029E493A3F85407240CC8C333ED
:10082C00C4540F4420C8834004F456800146F6DFBC
:10083C00E4800B0102040810204080900960E47EE3
:10084C00019360BCA3FF543F30E509541FFEE493B1
:10085C00A360010ECF54C025E060A840B8E493A378
:10086C00FAE493A3F8E493A3C8C582C8CAC583CAA3
:10087C00F0A3C8C582C8CAC583CADFE9DEE780BE5B
:01096900008D
:1008EA00BC000BBE0029EF8DF084FFADF022E4CCF2
:1008FA00F875F008EF2FFFEE33FEEC33FCEE9DECBB
:10090A00984005FCEE9DFE0FD5F0E9E4CEFD22ED00
:10091A00F8F5F0EE8420D21CFEADF075F008EF2F4A
:10092A00FFED33FD4007985006D5F0F222C398FD3B
:05093A000FD5F0EA22D8
:00000001FF
