:03000000020003F8
:0C000300787FE4F6D8FD75811602004AF3
:1000FE000115010B0AC0F9A4B0999282F880900103
:03010E000109C024
:1000E800EF1FAA0670011E4A600BE4FDEDC3947869
:0500F80050EE0D80F741
:0100FD0022E0
:1000B50075A0FF20A40A7F327E001200E8750801B2
:0C00C50020A40885098075A0F780F522B2
:1000D10075A0F7AF150515740A2FF8E6F509E515B2
:0700E100B40A03E4F5152247
:10008F0075A0F7E4F508850A801200B5E508B401FC
:10009F00061200D1E4F50885098075A0F77F027E6E
:0600AF00001200E880E3EE
:10000F0002008FE493A3F8E493A34003F68001F278
:10001F0008DFF48029E493A3F85407240CC8C333F2
:10002F00C4540F4420C8834004F456800146F6DFC1
:10003F00E4800B01020408102040809000FEE47E53
:10004F00019360BCA3FF543F30E509541FFEE493B6
:10005F00A360010ECF54C025E060A840B8E493A37D
:10006F00FAE493A3F8E493A3C8C582C8CAC583CAA8
:10007F00F0A3C8C582C8CAC583CADFE9DEE780BE60
:0101110000ED
:00000001FF
