:03000000020006F5
:0C000600787FE4F6D8FD75811802010C2B
:09019D00FFFEFDFBF7EFDFBF7F61
:04013F007FF47E01CA
:10014300D3EF9400EE94004015E4FDFC0DBD0001D7
:0E0153000CED647D4C70F5EF1F70E51E80E230
:01016100227B
:10010C0078107C007D007BFF7A01799D7E007F0951
:10011C001200E6D2AFD2A8D2AAD288D28AC2B8D262
:10012C00BAE4FB12013F74102BF8E6F5900BBB09F7
:03013C00F280E06E
:0300030002018077
:10018000C0E0C0D075D00075900F7F907E01120145
:0D019000437590F07F907E0112014380EADC
:0300130002016285
:07016200C0E0C0D075D00819
:10016900E4FB75900012013F7590FF12013F0BBB34
:0201790005F08F
:05017B00D0D0D0E032FD
:10001600E709F608DFFA8046E709F208DFFA803ECC
:1000260088828C83E709F0A3DFFA8032E309F608B9
:10003600DFFA8078E309F208DFFA807088828C8321
:10004600E309F0A3DFFA806489828A83E0A3F608D5
:10005600DFFA805889828A83E0A3F208DFFA804CAF
:1000660080D280FA80C680D4806980F28033801086
:1000760080A680EA809A80A880DA80E280CA8033EF
:1000860089828A83ECFAE493A3C8C582C8CCC58367
:10009600CCF0A3C8C582C8CCC583CCDFE9DEE78037
:1000A6000D89828A83E493A3F608DFF9ECFAA9F0B6
:1000B600EDFB2289828A83ECFAE0A3C8C582C8CC0C
:1000C600C583CCF0A3C8C582C8CCC583CCDFEADE25
:1000D600E880DB89828A83E493A3F208DFF980CC87
:1000E60088F0EF60010E4E60C388F0ED2402B40480
:1000F6000050B9F582EB2402B4040050AF23234527
:06010600822390006673E5
:00000001FF
