:0300000002000EED
:0C000E00787FE4F6D8FD75811B020055D8
:1001B8000A0FC0F9A4B0999282F88090040BC0C0CD
:0801C800C0C0010A00011BF791
:1001D100EF1FAA0670011E4A600BE4FDEDC394C82F
:0501E10050EE0D80F757
:0101E60022F6
:10018D00E4F51AAF1B7801EF08800123D8FDF51BAC
:10019D00F5A0740B251AF8E6F5807F017E0012019B
:0B01AD00D1051AE51AC3940440D922C2
:10015800E50975F00A84240FF8E6F50BE50975F052
:100168000A84740F25F0F8E6F50CE50875F00A84A2
:10017800240FF8E6F50DE50875F00A84740F25F0EC
:05018800F8E6F50E226F
:10009A00758901D2A9D2AF75083275093B75A0F0EE
:1000AA00850F8020A4FD30A4FD7F147E001201D1AB
:1000BA000519E51924FE6011146021240270E47503
:1000CA008CEEE4F58AD28C80DAC28C120158E4F5FF
:1000DA001A751BF730A4CC12018D80F8E4F519F5D6
:1000EA0008F50975A0F0740F2508F8E6F58080B3C5
:03000B000200FAF6
:1000FA00C0E0C0F0C0D075D000C000C002C005C0CA
:03010A0006C00725
:10010D00C28C758CEE758A00050A12018DE50AB454
:10011D005011750A000508E508D3943B4005750894
:10012D00000509E509B43C0DC28C75080075090080
:0A013D0075190280CBD28C12015814
:10014700D007D006D005D002D000D0D0D0F0D0E074
:010157003275
:10001A0002009AE493A3F8E493A34003F68001F262
:10002A0008DFF48029E493A3F85407240CC8C333E7
:10003A00C4540F4420C8834004F456800146F6DFB6
:10004A00E4800B01020408102040809001B8E47E8D
:10005A00019360BCA3FF543F30E509541FFEE493AB
:10006A00A360010ECF54C025E060A840B8E493A372
:10007A00FAE493A3F8E493A3C8C582C8CAC583CA9D
:10008A00F0A3C8C582C8CAC583CADFE9DEE780BE55
:0101D000002E
:00000001FF
