:030000000202E316
:0C02E300787FE4F6D8FD75813402032A10
:10041F000A24C0F9A4B0999282F88090081AF9A41E
:10042F00BFB099BF9282080AC0C0BFC0C0BFC0C0D2
:10043F00022200170212003B0208001502160000EC
:0B044F0002330000022E000001327F8B
:040539007FF47E01CC
:10053D00EF1FAA0670011E4A600BE4FDEDC394780F
:05054D0050EE0D80F7E7
:010552002286
:10020A00AE22AF237C007D0A1203CA74242FF8E6BB
:10021A00F51AAE22AF237C007D0A1203CA74242D7C
:10022A00F8E6F51BAE12AF137C007D0A1203CA74FE
:10023A00242FF8E6F51DAE12AF137C007D0A1203D7
:10024A00CA74242DF8E6F51EAE08AF097C007D0AB3
:10025A001203CA74242FF8E6F520AE08AF097C0011
:10026A007D0A1203CA74242DF8E6F521AE16AF17DB
:10027A007C007D0A1203CA74242FF8E6F50AAE162A
:10028A00AF177C007D0A1203CA74242DF8E6F50B19
:10029A00AE33AF347C007D0A1203CA74242FF8E609
:1002AA00F50DAE33AF347C007D0A1203CA74242DD7
:1002BA00F8E6F50EAE2EAF2F7C007D0A1203CA7443
:1002CA00242FF8E6F510AE2EAF2F7C007D0A12031C
:0902DA00CA74242DF8E6F5112286
:10045B00E513B53409E512B533047F0180027F0043
:10046B00E523B51709E522B516047E0180027E004F
:10047B00EE5FFFE509B52F09E508B52E047E018077
:0A048B00027E00EE5F6002D2B02294
:0F05530020A1080515E5157002051430A1FD2241
:0F05620020A208E51515157002151430A2FD2210
:0304950012020A46
:10049800E4F530F531853290741A2531F8E6F580A7
:1004A800AF327801EF08800123D8FDF5327F057E51
:1004B8000012053D0531E53170020530C39408E5A9
:0604C80030940040D02238
:0304CE0012020A0D
:1004D100E4F530F531853290740A2531F8E6F5807E
:1004E100AF327801EF08800123D8FDF5327F057E18
:1004F1000012053D0531E53170020530C39408E570
:0605010030940040D022FE
:10036F000519E51970020518641A4518700CF5186F
:10037F00F5190509E50970020508D3E509943BE570
:10038F00089400400DE4F508F5090513E513700214
:10039F000512D3E513943BE5129400400DE4F512DA
:1003AF00F5130523E52370020522D3E5239417E502
:0B03BF002294004005E4F522F5232203
:03000300020113E4
:10011300C0E0C0F0C0D075D000C000C002C004C0B1
:1001230005C006C007C2AFC2A8D2A41205397530F4
:100133000075310075320130B2351204958508140B
:10014300850915120553D3E515943BE51494004036
:1001530006751400751500120562C3E5149400506A
:100163000675140075153B85140885150980C8129A
:100173000539C2A4D2A530B235120495851214856F
:100183001315120553D3E515943BE514940040066B
:10019300751400751500120562C3E514940050062A
:1001A30075140075153B85141285151380C8120547
:1001B30039C2A5D2A630B23812020A120498852297
:1001C30014852315120553D3E5159417E5149400EC
:1001D3004006751400751500120562C3E5149400FA
:1001E300500675140075151785142285152380C5CF
:1001F300C2A6D2A8D007D006D005D004D002D00022
:07020300D0D0D0F0D0E032B2
:03001300020016D2
:10001600C0E0C0F0C0D075D000C000C002C004C0AF
:1000260005C006C007C2B0C2AFC2AAD2A4D2A712E8
:10003600053975300075310075320130B33512045B
:10004600CE852E14852F15120553D3E515943BE561
:100056001494004006751400751500120562C3E578
:10006600149400500675140075153B85142E8515DD
:100076002F80C8120539C2A4D2A530B3351204CEDA
:10008600853314853415120553D3E515943BE514D1
:1000960094004006751400751500120562C3E51438
:1000A6009400500675140075153B85143385153478
:1000B60080C8120539C2A5D2A630B33812020A1278
:1000C60004D1851614851715120553D3E515941713
:1000D600E51494004006751400751500120562C3F8
:1000E600E5149400500675140075151785141685C9
:1000F600151780C5C2A6C2A7D2AAD007D006D005BA
:0D010600D004D002D000D0D0D0F0D0E03234
:10050700D2AFD2A8D2AAD288D28AE4F5B8C2B0753F
:10051700A00F753201758901758C2D758A01C2A9E5
:10052700D28CD2AF12020A12036F12049812045B24
:0205370080F052
:1002EF00020507E493A3F8E493A34003F68001F219
:1002FF0008DFF48029E493A3F85407240CC8C33310
:10030F00C4540F4420C8834004F456800146F6DFDE
:10031F00E4800B010204081020408090041FE47E4B
:10032F00019360BCA3FF543F30E509541FFEE493D3
:10033F00A360010ECF54C025E060A840B8E493A39A
:10034F00FAE493A3F8E493A3C8C582C8CAC583CAC5
:10035F00F0A3C8C582C8CAC583CADFE9DEE780BE7D
:01045A0000A1
:1003CA00BC000BBE0029EF8DF084FFADF022E4CC17
:1003DA00F875F008EF2FFFEE33FEEC33FCEE9DECE0
:1003EA00984005FCEE9DFE0FD5F0E9E4CEFD22ED26
:1003FA00F8F5F0EE8420D21CFEADF075F008EF2F70
:10040A00FFED33FD4007985006D5F0F222C398FD60
:05041A000FD5F0EA22FD
:00000001FF
